:020000040800F2
:1000000000000120C5020008CB020008CF02000852
:1000100041030008450300088D03000800000000AC
:10002000000000000000000000000000D5030008F0
:10003000D903000800000000DD030008F11A0008E1
:10004000F1030008F1030008F1030008F1030008C0
:10005000F1030008F1030008F1030008F1030008B0
:10006000F1030008F1030008F1030008F1030008A0
:10007000F1030008F1030008F1030008F103000890
:10008000F1030008F1030008F1030008000000007C
:10009000000000000000000000000000F103000864
:1000A000F1030008F1030008F1030008F103000860
:1000B000F1030008F1030008F1030008F103000850
:1000C000F1030008F1030008F1030008D917000844
:1000D000F1030008CD1A0008F10300080000000039
:1000E000F1030008F1030008F1030008000000001C
:1000F000000000000000000000000000F103000804
:1001000000000000F1030008F1030008F1030008FB
:1001100000000000000000000000000000000000DF
:100120009D120008F1030008F1030008F103000824
:10013000F1030008000000000000000000000000C3
:10014000000000000000000000000000F1030008B3
:10015000F1030008F1030008F1030008F1030008AF
:10016000F1030008F1030008000000000000000097
:10017000000000000000000000000000000000007F
:1001800000000000F1030008000000000000000073
:10019000F103000800B583B000F04EFE384B394A39
:1001A0001360394A1360394900E02146384B9942BF
:1001B0000BD20A684B6801F10C0488689842F4D9A4
:1001C0001168196004330432F8E72E4B1A68314B7A
:1001D0009A4200D0FEE72C4B1A682F4B9A42F9D175
:1001E000274B2E4A13602E4A13602E4B05E0002049
:1001F000106004329342FAD80B462B4A934204D241
:10020000194651F8082B5B68F4E7244B1B6813B9B7
:10021000234B1B6803B1FEE701F0BCFC694601A853
:1002200000F09CFD214C224BE41AA4100025AC42A6
:1002300014DC204C204BE41AA4100025AC4213DC43
:100240000099019801F0C8FC05461C4C1C4BE41AAF
:10025000A410002C0EDC284600F052FD144B53F87D
:10026000253098470135E2E7134B53F8253098477E
:100270000135E3E7013C124B53F824309847E8E797
:10028000BABADECA0000002074000020F40300089F
:100290000C04000878563412325476987800002006
:1002A000500100200C0400081C0400081C04000875
:1002B0001C0400081C0400081C0400081C0400089E
:1002C0001C04000808B5FFF765FF00BEFEE71EF03E
:1002D000040F0CBFEFF30880EFF309807146414A29
:1002E00010472DE9F04182B004468846124B5E6B00
:1002F0009F6B9D6A1B6B13F0020F03D00E4BDB6AE2
:10030000002B0CDB0D4800F03BFDCDF800803B4698
:1003100032462946204600F09BFD00BEFEE74BF624
:10032000AB6100F00FFE0028ECD0034B4FF0004211
:10033000DA6202B0BDE8F08100ED00E0983000081C
:1003400000BEFEE71EF0040F0CBFEFF30880EFF3D2
:1003500009807146244A10472DE9F04182B00446D5
:100360008846084B5E6B9F6B9D6A074800F008FD4E
:10037000CDF800803B4632462946204600F068FD15
:1003800000BEFEE700ED00E0A83000081EF0040FFC
:100390000CBFEFF30880EFF309807146134A104752
:1003A0002DE9F04182B004468846084B5E6B9F6B96
:1003B0009D6A074800F0E4FCCDF800803B463246D9
:1003C0002946204600F044FD00BEFEE700ED00E0B7
:1003D000B430000800BEFEE700BEFEE700BEFEE748
:1003E00070470000E302000859030008A103000859
:0403F00000BEFEE766
:1003F4007471010800000020780000207471010865
:1004040000000010000000107800002054010020BB
:080414000000001000000010C0
:1004200010B50446074B1868074BA3FB0030800942
:1004300000F098F8002221464FF0FF3000F04CF811
:10044000002010BD0C000020D34D621008B50B4BEE
:100450001A6842F400721A601A6842F480621A60E4
:100460001A6842F480721A60032000F017F80F2017
:10047000FFF7D6FF01F0B6FC002008BD003C0240AB
:10048000024A136801331360704700BF3001002037
:10049000014B1868704700BF3001002010B50446BA
:1004A000C31E042B0FD80A4AD36823F4E0631B044D
:1004B0001B0C240204F4E064234343F0BF6343F4C1
:1004C0000033D36010BDA421024800F04FFCEAE7DE
:1004D00000ED00E0C82E000870B505460C46164633
:1004E0000F2A25D80F2C28D81B4BDB68C3F3022317
:1004F000C3F10702042A28BF0422191D062921D9A5
:10050000033B4FF0FF3101FA02F224EA02049C405F
:1005100001FA03F326EA03063443002D14DB240119
:10052000E4B205F1604505F5614585F8004370BD0D
:10053000BC210A4800F01AFCD4E7BD21074800F0AE
:1005400015FCD1E70023DCE705F00F052401E4B238
:10055000034B5C55EBE700BF00ED00E0C82E000840
:1005600014ED00E00138B0F1807F0AD2064B5860EC
:10057000064AF02182F823100020986007221A60B2
:1005800070470120704700BF10E000E000ED00E080
:1005900010B50446042800D038B9042C0BD0094A01
:1005A000136823F00403136010BD40F2B311064832
:1005B00000F0DCFBF1E7034A136843F00403136027
:1005C000F2E700BF10E000E0C82E000830B583B0AD
:1005D000044603680F2B29D8236813F0010F3DD080
:1005E0006368012B01D9052B25D1A34B9B6803F030
:1005F0000C03042B29D0A04B9B6803F00C03082BA1
:100600001ED022799D4B1A706368002B50D0FFF7E3
:100610003FFF0546984B1B6813F4003F1ED1FFF7C0
:1006200037FF401B6428F5D90320E3E1F521944806
:1006300000F09CFBD0E7FA21914800F097FBD4E74B
:100640008D4B5B6813F4800FDBD08B4B1B6813F46E
:10065000003F03D06368002B00F0C981236813F0CA
:10066000020F5DD0E368012B31D823691F2B34D8EA
:10067000814B9B6813F00C0F3AD07F4B9B6803F0C3
:100680000C03082B2FD0E368002B74D07D4B012284
:100690001A60FFF7FDFE0546774B1B6813F0020F4B
:1006A0005AD1FFF7F5FE401B0228F5D90320A1E13E
:1006B000FFF7EEFE0546704B1B6813F4003FCDD0EC
:1006C000FFF7E6FE401B6428F5D9032092E14FF4C2
:1006D00096716B4800F04AFBC7E740F22D1168485D
:1006E00000F044FBC4E7644B5B6813F4800FCAD18D
:1006F000614B1B6813F0020F04D0E368012B01D09B
:10070000012077E15C48036823F0F8032169F822AF
:1007100092FAA2F2B2FA82F201FA02F213430360F1
:10072000236813F0080F50D06369012B35D8636933
:10073000002B38D0544B01221A60FFF7A9FE054662
:100740004D4B5B6F13F0020F3FD1FFF7A1FE401B33
:100750000228F5D903204DE14748036823F0F80348
:100760002169F82292FAA2F2B2FA82F201FA02F2B6
:1007700013430360D4E7434B00221A60FFF788FE5F
:1007800005463D4B1B6813F0020FC9D0FFF780FEF2
:10079000401B0228F5D903202CE140F26D113848A6
:1007A00000F0E4FAC3E7384B00221A60FFF770FE4E
:1007B0000546314B5B6F13F0020F06D0FFF768FE62
:1007C000401B0228F5D9032014E1236813F0040F1D
:1007D00060D0A368012B01D9052B1FD10023019301
:1007E000254B1A6C42F080521A641B6C03F0805344
:1007F0000193019B254A136843F480731360FFF74C
:1008000047FE0546214B1B6813F4807F0CD1FFF790
:100810003FFE401B0228F5D90320EBE040F2971180
:10082000174800F0A3FAD9E7227A194B1A70A36887
:1008300083B1FFF72DFE05460F4B1B6F13F0020F20
:1008400028D1FFF725FE401B41F288339842F3D9A7
:100850000320CFE0FFF71CFE0546074B1B6F13F08C
:10086000020F17D0FFF714FE401B41F28833984265
:10087000F3D90320BEE000BF003802400238024036
:100880000C2F000800004742800E474200700040D5
:1008900070380240A369022B39D8A369002B00F0FD
:1008A000A880564A926802F00C02082A00F0A48040
:1008B000022B40F08880E36913B1B3F5800F2CD18F
:1008C000236A3F2B2FD8636A323BB3F5BF7F30D802
:1008D000A36A022B05D0042B03D0062B01D0082BD2
:1008E0002DD1E36A043B0B2B2FD8454B00221A6015
:1008F000FFF7CEFD0546414B1B6813F0007F2AD061
:10090000FFF7C6FD401B0228F5D9032072E04FF423
:10091000E6713C4800F02AFABFE740F2D5113948A9
:1009200000F024FACCE74FF4EB71364800F01EFAE1
:10093000C9E740F2D711334800F018FAC8E74FF47E
:10094000EC71304800F012FACBE740F2D9112D4893
:1009500000F00CFAC9E7E369226A1343616A47F6BB
:10096000C07292FAA2F2B2FA82F201FA02F21343D0
:10097000A26A5208013A4FF4403191FAA1F1B1FA5A
:1009800081F18A401343E16A4FF0706292FAA2F259
:10099000B2FA82F201FA02F21343184A5360184B7A
:1009A00001221A60FFF774FD0446144B1B6813F014
:1009B000007F06D1FFF76CFD001B0228F5D903204C
:1009C00018E0002016E00E4B00221A60FFF760FDD1
:1009D00004460A4B1B6813F0007F06D0FFF758FD52
:1009E000001B0228F5D9032004E0002002E00120CA
:1009F00000E0002003B030BD0120FBE700380240DA
:100A0000600047420C2F0008214B9B6803F00C0349
:100A1000042B3AD0082B01D01E4870471C4B586855
:100A200000F03F005B6813F4800F1ED01A4AB2FB3F
:100A3000F0F2174B586847F6C073184093FAA3F3C7
:100A4000B3FA83F3D84000FB02F0114B5B6803F468
:100A500040334FF4403292FAA2F2B2FA82F2D3401B
:100A600001335B00B0FBF3F070470A4AB2FBF0F2CF
:100A7000074B586847F6C073184093FAA3F3B3FACC
:100A800083F3D84000FB02F0DFE70348704700BF64
:100A9000003802400024F40040787D0170B504461F
:100AA0000D460368013B0E2B11D8072D15D88C4B32
:100AB0001B6803F00F03AB4215D2EBB2884A1370E8
:100AC000136803F00F03AB420DD0012070BD40F25C
:100AD0003721844800F04AF9E7E74FF40E71814866
:100AE00000F044F9E3E7236813F0020F18D0A3687D
:100AF0007BB1802B0DD0902B0BD0A02B09D0B02B2D
:100B000007D0C02B05D0D02B03D0E02B01D0F02B89
:100B100037D1754A936823F0F003A1680B439360C3
:100B2000236813F0010F73D06368032B2FD8636819
:100B3000012B32D09A1E012A36D96B4A126812F064
:100B4000020F00F0CA8068498A6822F0030213434A
:100B50008B60FFF79DFC06466368012B2BD0022BB0
:100B600038D0032B45D0604B9B6813F00C0F4FD04F
:100B7000FFF78EFC801B41F288339842F3D90320A3
:100B8000A4E740F24F21574800F0F0F8C1E740F2E7
:100B90005621544800F0EAF8C9E7534A126812F4A3
:100BA000003FD0D1012091E74F4A126812F0007F38
:100BB000C9D101208AE74C4B9B6803F00C03042B3E
:100BC00026D0FFF765FC801B41F288339842F2D9AA
:100BD00003207BE7444B9B6803F00C03082B17D0E2
:100BE000FFF756FC801B41F288339842F2D903206C
:100BF0006CE73D4B9B6803F00C030C2B08D0FFF710
:100C000047FC801B41F288339842F2D903205DE70C
:100C1000334B1B6803F00F03AB4209D9EAB2304BE8
:100C20001A701B6803F00F03AB4201D001204DE79F
:100C3000236813F0040F14D0E3685BB1B3F5805F51
:100C400008D0B3F5A05F05D0B3F5C05F02D0B3F50F
:100C5000E05F36D1244A936823F4E053E1680B4304
:100C60009360236813F0080F15D023695BB1B3F5C7
:100C7000805F08D0B3F5A05F05D0B3F5C05F02D0A8
:100C8000B3F5E05F23D1184A936823F460432169E8
:100C900043EAC1039360FFF7B7FE134B9B6803F071
:100CA000F003F02292FAA2F2B2FA82F2D3400F4A93
:100CB000D35CD8400E4B18600F20FFF7B1FB00202B
:100CC00004E74FF42D71074800F050F8C2E740F2F6
:100CD000BB21044800F04AF8D5E70120F6E600BF42
:100CE000003C02400C2F000800380240FC2E000897
:100CF0000C000020014B1868704700BF0C0000205A
:100D0000FEE7000008B5034800F052F80120FFF7A5
:100D1000F7FF00BF3C2F000808B503460C4A1268D5
:100D20005AB10B4A1068033323F003030344094A02
:100D3000934206D8064A136008BD054A0649116069
:100D4000EFE701F03FFC0C2303604FF0FF30F3E7C7
:100D50007C00002000FC00205401002001230360DF
:100D6000014B0B60704700BF0400002008B50A4625
:100D70000146024800F004F8FFF7C4FF502F0008B6
:100D80000FB400B583B004AB53F8042B019380215A
:100D9000064801F051FC002803DD0146034800F03D
:100DA00047F803B05DF804EB04B0704784000020FE
:100DB00010B5044601F00CFC0146204600F038F85E
:100DC0000121024800F034F810BD00BF14300008C3
:100DD0002DE9F04385B004460F4643560BB10E464D
:100DE0001EE0042528462146ABBE0446384605B021
:100DF000BDE8F08314F9011B04AA1A4402F8101C80
:100E00000133AB42F6D304AA1344002203F8102C9A
:100E10004FF00408E94640464946ABBE8046761B83
:100E2000002EE3D03546102E28BF10250023E8E71A
:100E300008B5FFF7CDFF08BD08B500F093F8024AEA
:100E4000024B9A6008BD00BF0000000800ED00E002
:100E5000F8B504460D4617461E462748FFF790FF93
:100E600021682648FFF78CFF61682548FFF788FF57
:100E7000A1682448FFF784FFE1682348FFF780FF5B
:100E800021692248FFF77CFF61692148FFF778FF5D
:100E9000A1692048FFF774FFE1691F48FFF770FF61
:100EA0001E48FFF76DFF29461D48FFF769FF1D4CDF
:100EB000E16A1D48FFF764FF216B1C48FFF760FFE4
:100EC000E16B1B48FFF75CFF15F0800F0AD115F4AA
:100ED000004F0CD11748FFF753FF06991648FFF74C
:100EE0004FFFF8BD39461548FFF74AFFEFE7314697
:100EF0001348FFF745FFEDE77C2F00088C2F000813
:100F00009C2F0008AC2F0008BC2F0008CC2F000835
:100F1000DC2F0008EC2F0008FC2F00080C30000824
:100F20001830000800ED00E02830000838300008D4
:100F30004830000878300008803000085830000839
:100F40006830000883691A888A4201D000207047FF
:100F50000268033A012A03D80233836101207047F3
:100F6000002070470C4B1A6842F001021A60002101
:100F700099601A6822F0847222F480321A60074A5B
:100F80005A601A6822F480221A60D960044B4FF02C
:100F900000629A60704700BF0038024010300024A1
:100FA00000ED00E0224B9B6803F00C03042B14D0EF
:100FB000082B16D01BB11F4B1F4A1A6002E01D4BB5
:100FC0001D4A1A601A4B9B68C3F303131B4AD15C7A
:100FD000184A1368CB4013607047164B184A1A60C2
:100FE000F0E7134B5A685B6803F03F0312F4800F7D
:100FF00013D0134AB2FBF3F20D4B5B68C3F38813B3
:1010000003FB02F30A4A5268C2F301420132520062
:10101000B3FBF2F3074A1360D4E7074AB2FBF3F2DB
:10102000034B5B68C3F3881303FB02F3EAE700BFDB
:10103000003802400C0000200024F400C4300008F6
:1010400040787D0110B5044601220221002000F005
:101050001DFA204600F0A2FB10BD10B50446002288
:101060000221104600F098FA204600F097FB10BDD0
:1010700038B505462A20FFF7F0FF0020FFF7E2FF12
:101080000020FFF7DFFF0020FFF7DCFF7F20FFF7E6
:10109000D9FF2B20FFF7E1FF0020FFF7D3FF00204F
:1010A000FFF7D0FF0020FFF7CDFF9F20FFF7CAFF1B
:1010B0002C20FFF7D2FF00240AE035F81400000AC4
:1010C000FFF7C0FF15F81400FFF7BCFF0134A4B20E
:1010D000B4F5A04FF1D338BD10B50446002202216B
:1010E000012000F0D3F900220221012000F0CEF906
:1010F0002146002000F0F2FA01220021104600F003
:10110000C5F9022000F078FB00221146012000F012
:10111000BDF910BD08B501220021104600F0C6F847
:1011200001221146104600F0C1F8012202211046AA
:1011300000F0BCF8022300221146012000F0FCF868
:10114000022300220121084600F0F6F802230022C3
:101150001946012000F0F0F8282000F04DFB012294
:101160000021084600F0A2F801221146002000F0FC
:101170009DF801220221002000F098F801220321AD
:10118000002000F093F801220421002000F08EF8E6
:1011900001220521002000F089F80122062100200B
:1011A00000F084F801220721002000F07FF80223DC
:1011B00000221146104600F0BFF802230022012150
:1011C000104600F0B9F8022300221946104600F03C
:1011D000B3F8022300220321104600F0ADF80223E9
:1011E00000220421104600F0A7F802230022052166
:1011F000104600F0A1F8022300220621104600F05C
:101200009BF8022300220721104600F095F83820B1
:10121000FFF762FF0C20FFF75FFF0120FFF75CFF85
:1012200008BD10B5044601220221104600F02EF937
:1012300000220121084600F029F92146002000F093
:101240004DFA01220021104600F020F9022000F0A2
:10125000D3FA00221146012000F018F910BD38B56C
:101260000546002403E0FFF7DCFF0134E4B2285D0B
:101270000028F8D138BD08B510B1012805D00021EB
:1012800041F08000FFF728FF08BD4031C9B2F7E701
:1012900008B50120FFF720FF08BD000008B5024B8C
:1012A0001B68984708BD00BF04010020034620B911
:1012B000A1F10D00C0B202280DD9012B07D010B446
:1012C000012B17D043B1022B22D010BC7047C81E8F
:1012D000C0B20128F3D87047144B1C6848000321A2
:1012E000814024EA010119601C6802FA00F12143DF
:1012F0001960EAE70E4B1C6848000321814024EA8C
:10130000010119601C6802FA00F121431960DCE751
:10131000084B1868490003248C4020EA0400186038
:10132000186802FA01F101431960CEE7000002409B
:10133000000402400008024070B4044620B9A1F144
:101340000D00C0B2022806D9012C06D0012C21D0F4
:1013500044B1022C36D070BC7047C81EC0B2012800
:10136000F4D8F8E7234885684C000326A64025EA10
:10137000060585608568A3402B438360436801248C
:101380008C4023EA04034360436802FA01F11943E5
:101390004160E0E7184885684C000326A64025EA2E
:1013A000060585608568A3402B438360436801245C
:1013B0008C4023EA04034360436802FA01F11943B5
:1013C0004160C8E70D4884684E000325B54024EA13
:1013D000050484608468B340234383604368012428
:1013E0008C4023EA04034360436802FA01F1194385
:1013F0004160B0E7000002400004024000080240E3
:10140000034620B9A1F10D00C0B202280DD9012B6D
:1014100007D010B4012B17D043B1022B22D010BC3F
:101420007047C81EC0B20128F3D87047144BDC685F
:1014300048000321814024EA0101D960DC6802FAF6
:1014400000F12143D960EAE70E4BDC684800032134
:10145000814024EA0101D960DC6802FA00F12143ED
:10146000D960DCE7084BD868490003248C4020EAA7
:101470000400D860D86802FA01F10143D960CEE7D0
:10148000000002400004024000080240034620B968
:10149000A1F10D00C0B202280BD9012B05D0012B00
:1014A0001BD03BB1022B2BD07047C81EC0B2012805
:1014B000F5D8704742B1012AFBD11B48436902FAB3
:1014C00001F119434161704717484369012202FA4B
:1014D00001F123EA01014161704742B1012AE8D1DB
:1014E0001248436902FA01F11943416170470F48FC
:1014F0004369012202FA01F123EA010141617047C7
:1015000042B1012AD5D10A48436902FA01F11943CF
:101510004161704706484369012202FA01F123EA5A
:1015200001014161C5E700BF000002400004024024
:1015300000080240034620B9A1F10D00C0B2022804
:1015400023D9012B05D0012B10D03BB1022B15D094
:101550007047C81EC0B20128F5D816E00B4B1B69B6
:1015600023FA01F101F0010111707047084B1B696A
:1015700023FA01F101F0010111707047054B1B695D
:1015800023FA01F101F001011170704700000240DF
:101590000004024000080240034620B9A1F10D00FA
:1015A000C0B202280BD9012B05D0012B18D03BB1BA
:1015B000022B25D07047C81EC0B20128F5D870474D
:1015C0003AB1012AFBD1012303FA01F1144B9961CD
:1015D00070471031012303FA01F1114B99617047F3
:1015E0003AB1012AEBD1012303FA01F10D4B9961C4
:1015F00070471031012303FA01F10A4B99617047DA
:101600003AB1012ADBD1012303FA01F1064B9961BA
:1016100070471031012303FA01F1034B9961CEE7C2
:1016200000000240000402400008024030B40128DB
:101630001CD018B1022831D030BC7047244C23682C
:101640004D000220A84003432360072905D8236AE0
:1016500089008A401A432262EEE71D48436A01F07E
:10166000070189008A401A434262E5E7194C236862
:101670004D000220A84003432360072905D8236AB0
:1016800089008A401A432262D6E71248436A01F071
:10169000070189008A401A434262CDE70E4C236855
:1016A0004D000220A84003432360072909D90A48B6
:1016B000436A01F00701890002FA01F1194341620E
:1016C000BAE7236A89008A401A432262B4E700BF5E
:1016D000000002400004024000080240012806D039
:1016E00010B1022806D07047044B59617047034B74
:1016F00059617047014B5961704700BF00000240BB
:1017000010B44409064951F8243000F01F000122AA
:1017100002FA00F0184341F8240010BC704700BFE3
:1017200000E100E0084A136843F001031360064B30
:101730001B6813F0020FFAD0034B9A6822F00302E1
:101740009A609A689A60704700380240032822D84D
:10175000DFE800F0121A020A0F48036C012202FAB5
:1017600001F11943016470470B48436C012202FAEE
:1017700001F11943416470470748036B012202FAE3
:1017800001F11943016370470348436B012202FAD8
:1017900001F11943416370470038024010B5044617
:1017A000012208210020FFF781FD002208211046B8
:1017B000FFF76CFE074BDC60064B9B6813F0800F55
:1017C000FAD1012208210020FFF760FE014BD86802
:1017D000C0B210BD0030014008B5024B1B6803B118
:1017E000984708BD38010020024A136823F004031B
:1017F0001360704710E000E008B500F037FC0022ED
:101800000B4B00F0ADFC00F0BDFE0A4B586000220F
:101810009A601A6842F001021A60064B1B6813F4C2
:10182000803FFAD0034A136823F00103136008BD18
:101830000040CF4010E000E008B500F017FC0022A7
:101840000B4B00F08DFC00F09DFE0A4B586000220F
:101850009A601A6842F001021A60064B1B6813F482
:10186000803FFAD0034A136823F00103136008BDD8
:101870000000304010E000E0D0B54B4CE3686FF35F
:10188000CF33E360E3686FF30C33E360E3686FF337
:10189000CB23E360E3686FF38A23E360E3686FF3CD
:1018A0000823E360E3686FF3C713E360E3686FF353
:1018B0008613E360E36843F02003E360E3686FF3BB
:1018C0000413E360E36843F00103E360E068C0F3FE
:1018D000C030C0F1020000F0D9FB0022334B00F011
:1018E0003FFC0022324B00F03BFC02460B462CA191
:1018F000D1E9000100F05EFD00F044FE80B200017D
:10190000A060E068C0F3C030C0F1020000F0BEFB90
:101910000022264B00F024FC0022254B00F020FC86
:1019200002460B461EA1D1E9000100F043FD064628
:101930000F46E068C0F3C030C0F1020000F0A6FB23
:1019400000221A4B00F00CFC0022194B00F008FC9E
:1019500002460B4612A1D1E9000100F02BFD00F078
:1019600011FE80B200F092FB02460B46304639462B
:1019700000F03EFA00220F4B00F0F2FB00F002FEF6
:1019800000F00F00A3681843A060E36843F0080369
:10199000E360E36843F00403E360D0BDAFF300808D
:1019A0000000000080846E410010014000002040D3
:1019B00000C0C2400000304010B4022821D00628E8
:1019C0002ED001280ED010BC70470C5C154B5C600B
:1019D000144B1B6813F0800FFAD00130C0B2904254
:1019E000F3D3F0E70020FAE70C5C0F4B5C600E4B82
:1019F0001B6813F0800FFAD00130C0B29042F3D3CD
:101A0000E1E70020FAE70C5C084B5C60074B1B68C1
:101A100013F0800FFAD00130C0B29042F3D3D2E776
:101A20000020FAE70010014000440040001401408B
:101A300002280DD0062814D0012800D070470D4B85
:101A40001B6813F0200FFAD00A4B5B680B707047CD
:101A5000094B1B6813F0200FFAD0074B5B680B7023
:101A60007047064B1B6813F0200FFAD0034B5B68DE
:101A70000B70E3E7001001400044004000140140F7
:101A800002280AD006280ED0012800D07047094A43
:101A9000D36843F40053D3607047074AD36843F4D4
:101AA0000053D3607047054AD36843F40053D360B2
:101AB000ECE700BF0010014000440040001401406A
:101AC000014B1860704700BF2401002008B5024B8D
:101AD0001B68984708BD00BF24010020034B1B680A
:101AE0001BB1024A1368013B136070474801002094
:101AF00008B5FEF7C5FCFFF7F1FF08BD70B594B05F
:101B000000240194204B1A6C42F080521A641B6C22
:101B100003F080530193019B02941C4B1A6842F41A
:101B200040421A601B6803F440430293029B012366
:101B3000089309934FF480030F93192310934FF4E4
:101B4000A8731193042612960723139302250E956A
:101B500008A8FEF73BFD0F230393049505944FF46B
:101B6000805306930794294603A8FEF797FFFFF7D3
:101B7000C1F8074BA3FB00308009FEF7F3FC3046A9
:101B8000FEF706FD14B070BD003802400070004042
:101B9000D34D621008B5FEF759FCFFF7AFFFFFF712
:101BA00001FA08BD10B5094C21460120FFF740FF9E
:101BB0002378312B02D0322B04D010BD0448FFF71C
:101BC00057FAFAE70348FFF753FAF6E74C0100200B
:101BD000D4300008D4D0000870B582B0FFF7A2FD61
:101BE000FFF702FE01210020FFF7B0FD00210846AB
:101BF000FFF7ACFD02210020FFF7A8FD0421032020
:101C0000FFF7A4FD022209210020FFF74FFB02226B
:101C10000A210020FFF74AFB072209210020FFF7D5
:101C200005FD07220A210020FFF700FD2520FFF710
:101C300067FDFFF721FE0120FFF722FF5B48FFF75A
:101C40003FFFFFF767FA01210020FFF714FB584818
:101C5000FFF705FB01210846FFF70DFB5548FFF78D
:101C6000FEFA554C2046FFF7E7FD2046FFF7E4FD5E
:101C7000FFF70EFB5148FFF7DFFD01210020FFF7C2
:101C8000FAFA4F48FFF7EBFA01210846FFF7F3FA9B
:101C90004C48FFF7E4FA00220D210220FFF706FB73
:101CA00001220D210220FFF7ABFB00220E210220B2
:101CB000FFF7FCFA01220E210220FFF7A1FB01250C
:101CC0002E4639E0012240491046FFF775FEFFF726
:101CD000DFFA3E4E3046FFF7AFFD01210020FFF74F
:101CE000CAFA3B48FFF7BBFA01210846FFF7C3FADF
:101CF0003848FFF7B4FA3046FFF79EFD05E00DF1D6
:101D000006020D210220FFF715FC9DF80630002B7E
:101D1000F5D0264623E016BB264620E00DF107024B
:101D20000E210220FFF706FC9DF80730002BF5D0AE
:101D3000254601E0012C35D00DF106020D210220CF
:101D4000FFF7F8FB0DF107020E210220FFF7F2FB6F
:101D50009DF806400CB9012EB4D0012CDBD09DF8C3
:101D60000740002CE6D1012DE4D101221A4910468A
:101D7000FFF722FEFFF78CFA144D2846FFF75CFDB3
:101D800001210020FFF777FA1448FFF768FA0121D4
:101D90000846FFF770FA1248FFF761FA2846FFF786
:101DA0004BFDC1E7002DC7D12546C5E7A51B00089F
:101DB000D4700108E070010800CA9A3B00E1F50503
:101DC000EC700108F870010808710108A086010094
:101DD0000C710108187101082471010828710108AB
:101DE000347101087047000081F0004102E000BF3B
:101DF00083F0004330B54FEA41044FEA430594EACB
:101E0000050F08BF90EA020F1FBF54EA000C55EA05
:101E1000020C7FEA645C7FEA655C00F0E2804FEAD6
:101E20005454D4EB5555B8BF6D420CDD2C4480EAB8
:101E3000020281EA030382EA000083EA010180EAE8
:101E4000020281EA0303362D88BF30BD11F0004F36
:101E50004FEA01314FF4801C4CEA113102D040426C
:101E600061EB410113F0004F4FEA03334CEA1333A7
:101E700002D0524263EB430394EA050F00F0A780BF
:101E8000A4F10104D5F1200E0DDB02FA0EFC22FABA
:101E900005F2801841F1000103FA0EF2801843FAAE
:101EA00005F359410EE0A5F120050EF1200E012A9F
:101EB00003FA0EFC28BF4CF0020C43FA05F3C018DD
:101EC00051EBE37101F0004507D54FF0000EDCF156
:101ED000000C7EEB00006EEB0101B1F5801F1BD3FF
:101EE000B1F5001F0CD349085FEA30004FEA3C0C03
:101EF00004F101044FEA445212F5800F80F09A80F9
:101F0000BCF1004F08BF5FEA500C50F1000041EBFC
:101F1000045141EA050130BD5FEA4C0C404141EB00
:101F2000010111F4801FA4F10104E9D191F0000F27
:101F300004BF01460020B1FA81F308BF2033A3F1AA
:101F40000B03B3F120020CDA0C3208DD02F1140CA1
:101F5000C2F10C0201FA0CF021FA02F10CE002F1DC
:101F60001402D8BFC2F1200C01FA02F120FA0CFCD5
:101F7000DCBF41EA0C019040E41AA2BF01EB04511E
:101F8000294330BD6FEA04041F3C1CDA0C340EDC1C
:101F900004F11404C4F1200220FA04F001FA02F35F
:101FA00040EA030021FA04F345EA030130BDC4F11D
:101FB0000C04C4F1200220FA02F001FA04F340EA12
:101FC0000300294630BD21FA04F0294630BD94F0C3
:101FD000000F83F4801306BF81F480110134013DAA
:101FE0004EE77FEA645C18BF7FEA655C29D094EA1B
:101FF000050F08BF90EA020F05D054EA000C04BF99
:102000001946104630BD91EA030F1EBF0021002083
:1020100030BD5FEA545C05D14000494128BF41F022
:10202000004130BD14F580043CBF01F5801130BD86
:1020300001F0004545F0FE4141F470014FF0000011
:1020400030BD7FEA645C1ABF194610467FEA655CC2
:102050001CBF0B46024650EA013406BF52EA033564
:1020600091EA030F41F4002130BD00BF90F0000F52
:1020700004BF0021704730B54FF4806404F132048E
:102080004FF000054FF0000150E700BF90F0000F47
:1020900004BF0021704730B54FF4806404F132046E
:1020A00010F0004548BF40424FF000013EE700BF3E
:1020B00042004FEAE2014FEA31014FEA02701FBFCE
:1020C00012F07F4393F07F4F81F06051704732F000
:1020D0007F4208BF704793F07F4F04BF41F4002157
:1020E000704730B54FF4607401F0004521F00041B5
:1020F0001CE700BF50EA010208BF704730B54FF03F
:1021000000050AE050EA010208BF704730B511F03F
:10211000004502D5404261EB41014FF4806404F177
:1021200032045FEA915C3FF4D8AE4FF003025FEAFD
:10213000DC0C18BF03325FEADC0C18BF033202EB81
:10214000DC02C2F1200300FA03FC20FA02F001FADB
:1021500003FE40EA0E0021FA02F11444BDE600BF7E
:1021600070B54FF0FF0C4CF4E06C1CEA11541DBF2D
:102170001CEA135594EA0C0F95EA0C0F00F0DEF8F8
:102180002C4481EA030621EA4C5123EA4C5350EADD
:10219000013518BF52EA033541F4801143F480132E
:1021A00038D0A0FB02CE4FF00005E1FB02E506F0BF
:1021B0000042E0FB03E54FF00006E1FB03569CF014
:1021C000000F18BF4EF0010EA4F1FF04B6F5007F1A
:1021D00064F5407404D25FEA4E0E6D4146EB06068C
:1021E00042EAC62141EA55514FEAC52040EA5E5015
:1021F0004FEACE2EB4F1FD0C88BFBCF5E06F1ED8BF
:10220000BEF1004F08BF5FEA500E50F1000041EBF5
:10221000045170BD06F0004646EA010140EA0200A2
:1022200081EA0301B4EB5C04C2BFD4EB0C0541EAC4
:10223000045170BD41F480114FF0000E013C00F3D9
:10224000AB8014F1360FDEBF002001F0004170BDFD
:10225000C4F10004203C35DA0C341BDC04F1140416
:10226000C4F1200500FA05F320FA04F001FA05F2A2
:1022700040EA020001F0004221F0004110EBD3706F
:1022800021FA04F642EB06015EEA430E08BF20EA9B
:10229000D37070BDC4F10C04C4F1200500FA04F33E
:1022A00020FA05F001FA04F240EA020001F00041D0
:1022B00010EBD37041F100015EEA430E08BF20EA43
:1022C000D37070BDC4F1200500FA05F24EEA020E8B
:1022D00020FA04F301FA05F243EA020321FA04F0BA
:1022E00001F0004121FA04F220EA020000EBD37071
:1022F0005EEA430E08BF20EAD37070BD94F0000F71
:102300000FD101F00046400041EB010111F4801FA4
:1023100008BF013CF7D041EA060195F0000F18BF55
:10232000704703F00046520043EB030313F4801F91
:1023300008BF013DF7D043EA0603704794EA0C0F4B
:102340000CEA135518BF95EA0C0F0CD050EA410661
:1023500018BF52EA4306D1D181EA030101F00041DE
:102360004FF0000070BD50EA410606BF1046194606
:1023700052EA430619D094EA0C0F02D150EA013612
:1023800013D195EA0C0F05D152EA03361CBF104653
:1023900019460AD181EA030101F0004141F0FE41F2
:1023A00041F470014FF0000070BD41F0FE4141F476
:1023B000780170BD70B54FF0FF0C4CF4E06C1CEA76
:1023C00011541DBF1CEA135594EA0C0F95EA0C0F2B
:1023D00000F0A7F8A4EB050481EA030E52EA0335E6
:1023E0004FEA013100F088804FEA03334FF0805507
:1023F00045EA131343EA12634FEA022245EA111534
:1024000045EA10654FEA00260EF000419D4208BFE4
:10241000964244F1FD0404F5407402D25B084FEA91
:102420003202B61A65EB03055B084FEA32024FF43D
:1024300080104FF4002CB6EB020E75EB030E22BF9A
:10244000B61A754640EA0C005B084FEA3202B6EB5A
:10245000020E75EB030E22BFB61A754640EA5C0009
:102460005B084FEA3202B6EB020E75EB030E22BF99
:10247000B61A754640EA9C005B084FEA3202B6EB9A
:10248000020E75EB030E22BFB61A754640EADC0059
:1024900055EA060E18D04FEA051545EA16754FEABB
:1024A00006164FEAC30343EA52734FEAC2025FEAD9
:1024B0001C1CC0D111F4801F0BD141EA00014FF068
:1024C00000004FF0004CB6E711F4801F04BF014339
:1024D0000020B4F1FD0C88BFBCF5E06F3FF6AFAE55
:1024E000B5EB030C04BFB6EB020C5FEA500C50F1E5
:1024F000000041EB045170BD0EF0004E4EEA113168
:1025000014EB5C04C2BFD4EB0C0541EA045170BD6E
:1025100041F480114FF0000E013C90E645EA060EB2
:102520008DE60CEA135594EA0C0F08BF95EA0C0FE0
:102530003FF43BAF94EA0C0F0AD150EA01347FF428
:1025400034AF95EA0C0F7FF425AF104619462CE7FF
:1025500095EA0C0F06D152EA03353FF4FDAE104662
:10256000194622E750EA410618BF52EA43067FF4B3
:10257000C5AE50EA41047FF40DAF52EA43057FF443
:10258000EBAE12E74A0011D212F5001211D20DD5AE
:102590006FF47873B3EB62520ED44FEAC12343F069
:1025A000004343EA505323FA02F070474FF0000013
:1025B000704750EA013002D14FF0FF3070474FF0C2
:1025C00000007047014B1868704700BF10000020E2
:1025D000034613F8012B002AFBD1181A0138704763
:1025E00030B5141E05469BB0184605DA8B232B60C8
:1025F0004FF0FF301BB030BD4FF40273ADF80C301C
:1026000014BF04F1FF332346029305934FF6FF7383
:1026100000910491ADF80E3002461E9B6946284693
:1026200000F072F8431CBCBF8B232B60002CE1D060
:10263000009B00221A70DDE707B5009313460A4697
:10264000014603480068FFF7CBFF03B05DF804FBC9
:10265000100000202DE9F0478E689E4282460C460D
:102660009046994637D88A8912F4906F31D0256800
:1026700009696F1A6569022305EB450595FBF3F5BA
:1026800009F101033B449D4238BF1D46530530D537
:10269000294600F07FFB064650B90C23CAF80030EB
:1026A000A38943F04003A3814FF0FF30BDE8F087DA
:1026B0003A46216900F0FCFAA38923F4906343F0C1
:1026C0008003A381266165613E44ED1B2660A56001
:1026D0004E464E4500D94E4632464146206800F0EF
:1026E000F2FAA3689B1BA36023681E4426600020A7
:1026F000DCE72A4600F0A8FB06460028E2D1216963
:10270000504600F0F9FAC8E72DE9F04F9DB0804639
:1027100003938B891D060C4616460FD50B696BB9C2
:10272000402100F037FB2060206128B90C23C8F855
:1027300000304FF0FF30C7E040236361002309936E
:1027400020238DF8293030238DF82A304FF0010BEB
:1027500037463D4615F8013B0BB1252B3ED1B7EB73
:10276000060A0BD05346324621464046FFF772FF19
:10277000013000F0A480099B534409933B78002B5F
:1027800000F09D8000234FF0FF32CDE90523049334
:1027900007938DF853301A932F46052217F8011B23
:1027A0004F4800F035FA049BD0B9D90644BF202227
:1027B0008DF853201A0744BF2B228DF853202A7816
:1027C0002A2A15D0079A2F4600200A25394611F8E3
:1027D000013B303B092B4DD9B8B10FE02F46B8E78C
:1027E0003F4A801A0BFA00F0184304903D46D3E7A5
:1027F000039A111D12680391002A01DB079204E07D
:10280000524243F00203079204933B782E2B0CD1E3
:102810007B782A2B33D1039B1A1D1B680392002B54
:10282000B8BF4FF0FF33023705932E4D397803229E
:10283000284600F0EDF938B14023401B03FA00F0C0
:10284000049B034301370493397827488DF82810F7
:1028500006227E1C00F0DCF9002838D0234B13BB85
:10286000039B073323F0070308330393099B4B446F
:1028700009936DE705FB023201200F46A6E700230E
:102880000137059319460A25384610F8012B303ACE
:10289000092A03D9002BC8D00591C6E705FB012101
:1028A00001230746F0E703AB00932246104B04A92F
:1028B0004046AFF30080B0F1FF3F8146D6D1A389F7
:1028C0005B063FF536AF09981DB0BDE8F08F03AB4E
:1028D00000932246064B04A9404600F081F8EAE73F
:1028E00040710108467101084A71010800000000AA
:1028F000552600082DE9F04791461F468A680B6966
:10290000DDF820809342B8BF1346C9F8003091F833
:10291000432006460C4612B10133C9F80030236843
:10292000990642BFD9F800300233C9F80030256853
:1029300015F0060507D104F1190AE368D9F800205B
:102940009B1AAB4228DC94F843302268003318BF4E
:10295000012392062DD404F1430239463046C04784
:10296000013020D02368E568D9F8002003F0060381
:10297000042B08BFAD1AA36822690CBF25EAE575D0
:1029800000259342C4BF9B1AED184FF000091A347A
:102990004D451AD1002008E0012352463946304601
:1029A000C047013003D14FF0FF30BDE8F08701355B
:1029B000C3E7E1185A1C302081F84300224494F800
:1029C000451082F843100233C5E7012322463946F9
:1029D0003046C0470130E6D009F10109D8E70000D0
:1029E0002DE9F04301F1430C0C46097E85B06E29B8
:1029F0001746064698460C9A00F0B38022D8632901
:102A000036D00AD8002900F0B980582900F0838018
:102A100004F1420584F8421032E0642901D06929AA
:102A2000F6D120681368050603F104012AD51B6856
:102A30001160002B03DA2D225B4284F843206F489B
:102A40000A2239E0732900F09D8008D86F2920D030
:102A50007029DDD1236843F02003236003E075294A
:102A600017D07829D4D1782384F84530644855E0CC
:102A70001368191D1B68116004F1420584F8423087
:102A800001238CE01B68116010F0400F18BF1BB2CF
:102A9000CFE713682568181D1060280601D51B684C
:102AA00002E06806FBD51B8854486F2914BF0A2230
:102AB0000822002184F843106568A560002DC0F24B
:102AC0009580216821F004012160002B3DD1002D6B
:102AD00040F08E806546082A0BD12368DB0708D5B5
:102AE000236962689A42DEBF302305F8013C05F194
:102AF000FF35ACEB05032361CDF800803B4603AA0C
:102B000021463046FFF7F6FE01304DD14FF0FF3041
:102B100005B0BDE8F083394884F845101368216892
:102B20001D1D1B6815600A060BD5CA0744BF41F07E
:102B3000200121601BB9226822F0200222601022AD
:102B4000B7E74D0648BF9BB2EFE76546B3FBF2F12E
:102B500002FB1133C35C05F8013D0B460029F5D19A
:102B6000B9E7136825686169181D106028061B689D
:102B700001D5196002E06A06FBD5198000232361A4
:102B80006546B9E71368191D11601D686268002168
:102B9000284600F03DF808B1401B6060636823617F
:102BA000002384F84330A7E723692A463946304694
:102BB000C0470130AAD023689B0713D4E068039B69
:102BC0009842B8BF1846A3E701234A463946304623
:102BD000C04701309AD00135E368039A9B1AAB4293
:102BE000F2DCEBE7002504F11909F5E7002BACD185
:102BF000037884F8423004F142056CE75171010812
:102C000062710108000000000000000000000000E8
:102C100001F0FF01102A2BDB10F0070F08D010F88D
:102C2000013B013A8B422DD010F0070F42B3F6D191
:102C3000F0B441EA012141EA014122F007047FF0AA
:102C400000070023F0E80256083C85EA010586EA01
:102C5000010685FA47F5A3FA87F586FA47F6A5FA3D
:102C600087F68EB9EED1F0BC01F0FF0102F0070249
:102C700032B110F8013B013A83EA010313B1F8D1F4
:102C80000020704701387047002D06BF35460338D5
:102C9000073815F0010F07D1013015F4807F02BF0E
:102CA000013015F4C03F0130F0BC0138704700BF5F
:102CB00010B5431E0A44914200D110BD11F8014BDA
:102CC00003F8014FF7E7884210B501EB020307D87C
:102CD000421E99420AD011F8014B02F8014FF8E761
:102CE0008342F5D98118D21AD34200D110BD13F80E
:102CF000014D01F8014DF7E738B50546002945D0EB
:102D000051F8043C0C1F002BB8BFE41800F0D2F8B7
:102D10001F4A1368104633B9636014602846BDE843
:102D2000384000F0C8B8A3420CD921686218934219
:102D300004BF1A685B68636004BF521822600460B5
:102D4000ECE713465A680AB1A242FAD91968581832
:102D5000A0420BD120680144581882421960DDD18D
:102D6000106852685A6001441960D7E702D90C23F1
:102D70002B60D3E7206821188A4204BF116852688B
:102D8000626004BF091821605C60C7E738BD00BFFE
:102D90002801002070B5CD1C25F0030508350C2D49
:102DA00038BF0C25002D064601DBA94203D90C23B0
:102DB0003360002070BD00F07DF8214A1468214680
:102DC00091B9204C23681BB9304600F063F82060AD
:102DD0002946304600F05EF8431C24D10C233360B2
:102DE000304600F068F8E4E70B685B1B18D40B2B47
:102DF0000FD90B60CD50CC18304600F05CF804F1D0
:102E00000B00231D20F00700C31AD3D05A42E25012
:102E1000D0E78C424B6816BF636013600C46EBE74B
:102E20000C464968CCE7C41C24F00304A04205D03A
:102E3000211A304600F02EF80130CFD02560DBE7B4
:102E4000280100202C010020F8B5074614460E4644
:102E500021B91146BDE8F840FFF79CBF22B9FFF742
:102E60004BFF25462846F8BD00F026F8A0420FD2B9
:102E700021463846FFF78EFF05460028F2D031463E
:102E80002246FFF715FF31463846FFF735FFE9E7E1
:102E90003546E7E738B5064C00230546084623606B
:102EA000FDF73AFF431C02D1236803B12B6038BD04
:102EB000340100207047704751F8043C181F002B64
:102EC000BCBF0B58C01870472E2E2F7379737465D2
:102ED0006D2F7372632F73746D333266342D686196
:102EE0006C2F73746D3332663478785F68616C5F11
:102EF000636F727465782E630000000000000000AC
:102F00000102030401020304060708092E2E2F7391
:102F1000797374656D2F7372632F73746D333266BA
:102F2000342D68616C2F73746D3332663478785F3A
:102F300068616C5F7263632E6300000061626F7290
:102F40007428292C2065786974696E672E2E2E00EE
:102F50006173736572745F706172616D2829206698
:102F600061696C65643A2066696C6520222573226C
:102F70002C206C696E652025640A0000537461631F
:102F80006B206672616D653A0A00000020523020A5
:102F90003D2020253038580A000000002052312002
:102FA0003D2020253038580A0000000020523220F1
:102FB0003D2020253038580A0000000020523320E0
:102FC0003D2020253038580A0000000020523132C0
:102FD000203D20253038580A00000000204C5220A7
:102FE0003D2020253038580A0000000020504320A2
:102FF0003D2020253038580A000000002050535250
:10300000203D20253038580A000000004653522F3A
:103010004641523A0A0000002043465352203D20C8
:1030200020253038580A00002048465352203D20C1
:1030300020253038580A00002044465352203D20B5
:1030400020253038580A00002041465352203D20A8
:1030500020253038580A0000204D4D464152203D71
:1030600020253038580A00002042464152203D2099
:1030700020253038580A00004D6973630A000000AB
:10308000204C522F4558435F52455455524E3D20D7
:10309000253038580A0000005B486172644661754B
:1030A0006C745D0A000000005B4275734661756CCC
:1030B000745D0A005B55736167654661756C745D8C
:1030C0000A000000000000000000000001020304EC
:1030D00006070809430043002200220022004300A3
:1030E000430022004300220022004300430043002B
:1030F000220022002200430043002200220043005D
:10310000430022004300220022002200220022006D
:103110002200220023002300230023002300430079
:1031200043004300230023002300430043004300E7
:103130004300430043004300430043004300430077
:103140004300430043004300430043004300430067
:103150004300430043006300230022004208C418D8
:10316000430043000200A3108D7B685A000800084A
:10317000074A2A73498BCA9BAA9BEBABCAA3E98275
:103180006210020024004400230822086310E5189E
:103190002100420022002200220022002200220000
:1031A000220022002200220022002200220022000F
:1031B00022002200220022002200220022002200FF
:1031C0002200630883088308830883086308630870
:1031D00083088308430022002200220043004300AA
:1031E000430022002200220022004300430043004B
:1031F000220022002200430043002200220043005C
:10320000430022004300220022002200220022006C
:103210002200430023002300230023002300230077
:1032200043004300230023002300430043004300E6
:103230004300430043004300430043004300430076
:103240004300430043004300430043004300430066
:103250004300430043004300230002006308A4101E
:103260004300230022000421E741C2202010201047
:10327000A5412B738A8B0CA40CAC0BACAAA3E982DE
:1032800082104300230044004308220862080521FD
:10329000220022002200220022002200220022001E
:1032A000220022002200220022002200220022000E
:1032B00022002200220022002200220022002200FE
:1032C000220063088308830883088308630863086F
:1032D0008308830823002300230023002300230006
:1032E0002300230023002300230043004300230086
:1032F0002300230023004300430023002300430056
:103300004300430023002300230023002300230065
:103310002300230023002300230023002300230095
:1033200043004300430043002300230043004300C5
:103330004300430043004300430043004300430075
:103340004300430043004300430043004300430065
:10335000430043004300430023002200A4108410D4
:103360002300230022002521643181200008001061
:10337000074A2B7BEC9BEC9BCB9BECA3CAA32A8B31
:10338000821823002300440043082200430805213B
:10339000220022002200220022002200220022001D
:1033A000220022002200220022002200220022000D
:1033B00022002200220022002200220022002200FD
:1033C000220063088308830883088308630863086E
:1033D0008308830823002300230023002300230005
:1033E0002300230023002300230043004300230085
:1033F0002300230023004300430023002300430055
:103400004300430023002300230023002300230064
:103410002300230043002300230023002300230074
:1034200043004300430043002300430043004300A4
:103430004300430043004300430043004300430074
:103440004300430043004300430043004300430064
:10345000430043004300430023002208C4188308AC
:10346000220022000100A731643143398441065211
:103470008862EA6ACD8BED9B0D9C0CA48AA36A93AB
:10348000A220020023004400430822004208062133
:1034900042002200220022002200220022002200FC
:1034A000220022002200220022002200220022000C
:1034B00022002200220022002200220022002200FC
:1034C000220063088308830883088308830883082D
:1034D0008308830823002300230023002300230004
:1034E0002300230023002300230043004300230084
:1034F0002300230043004300230023002300230074
:103500004300230023002300230023002300230083
:103510002300230043004300230023002300230053
:103520004300430043004300430043004300430083
:103530004300430043004300430043004300430073
:103540004300430043004300430043004300430063
:10355000430043004300430042004308C5184308AA
:10356000220022004208A6394431A5494762C972A7
:10357000A4494339A9628C832E9C2DA44993298B9D
:10358000C32001002300430043002300420005192B
:10359000420002002200220022002200220022001B
:1035A000220022002200220022002200220022000B
:1035B00022002200220022002200220022002200FB
:1035C000220063088308830883088308830883082C
:1035D0008308830823002300230023002300230003
:1035E0002300230023002300230043004300230083
:1035F0002300230043002300230023002300230093
:1036000023002300230023002300230023002300A2
:1036100023002300230043004300430043004300F2
:1036200023002300230043004300430043004300E2
:103630004300430043004300430043004300430072
:103640004300430043004300430043004300430062
:1036500043004300430043004200831084102300D2
:1036600022002200821086316539C549065AC87287
:10367000676AC96A8541A541275A8B8B6993298B53
:10368000C228010022004300630043002200E51825
:10369000420002002200220022002200220022001A
:1036A000220022002200220022002200220022000A
:1036B00022002200220022002200220022002200FA
:1036C000220063088308830883088308830883082B
:1036D0008308830823002300230023002300230002
:1036E0002300220023002300430043002300230083
:1036F0002300230043002300230023002300230092
:1037000023002300230023002300230023002300A1
:103710002300230023002300430043004300430011
:1037200043002300430043004300430043004300A1
:103730004300430043004300430043004300430071
:103740004300430043004300430043004300430061
:1037500043004300430043004200A41063082300D9
:1037600042002100E318E741854123414662E87A9F
:103770000A838D8B243120102010097BAB9B4A8B50
:10378000E228000022002300640043002200C51844
:103790002200020022002200220022002200220039
:1037A0002200220022002200220022002200220009
:1037B00022002200220022002200220022002200F9
:1037C000220063088308830883088308830883082A
:1037D0008308830823002300230023002300230001
:1037E0002300020043004300430043002300230062
:1037F0002300430043002300230023004300430031
:1038000023002300230023002300230023002300A0
:103810002300230023002300430043004300430010
:1038200043002300430043004300430043004300A0
:103830004300430043004300430043004300430070
:103840004300430043004300430043004300430060
:1038500043004300430043004208C41843082300C8
:10386000420021008210E320A54184494562298B52
:10387000ED9B47620429621061100A7B8B93498B90
:103880000329000022002200640064002200A4102A
:103890002200020022002200220022002200220038
:1038A0002200220022002200220022002200220008
:1038B00022002200220022002200220022002200F8
:1038C0002200630863088308830883088308830849
:1038D00083088308230023004300430043002300A0
:1038E0002300430023004300430023002300230060
:1038F0002300430023002300230023002300230090
:1039000023002300230023002300020023004300A0
:10391000630043004300430043004300630063002F
:10392000430043004300430063004300430063003F
:10393000630043004300430043002300430043006F
:10394000430043004300430043004300430043005F
:103950004300430044000200A41083102308020027
:10396000220062082421895A033143498672498B17
:103970000DA4886A24314529E7412331E97A6A8B0D
:103980002331000021002200640043002300A51021
:103990004208010022002200220022002200220010
:1039A0002200220022002200220022002200220007
:1039B00022002200220022002200220022002200F7
:1039C0002200630083086308630863088308830890
:1039D00083088308230023002300430023002300DF
:1039E000230043004300430043002300230023003F
:1039F000230043002300230023002300230023008F
:103A0000230023002300430023002200230043005F
:103A1000630043004300430043004300630063002E
:103A2000430043004300430043004300430043007E
:103A3000430043004300430043004300430043006E
:103A4000430043004300430043004300430043005E
:103A50004300430043004300C41083104308230085
:103A600042008208242144318020C4596572088BA9
:103A7000ECAB0A83A641084AC3200008A4518C8BF2
:103A8000C220210022002200630064002300A51050
:103A90002200010022002200220022002200220037
:103AA0002200220022002200220022002200220006
:103AB00022002200220022002200220022002200F6
:103AC00022006300630863006300630883088308BF
:103AD00083088308430023002300230023002300DE
:103AE000230043004300430043004300230023001E
:103AF00023002300230023002300230023002300AE
:103B0000230023002300430023002300230043005D
:103B1000640043004300430043004300630064002B
:103B2000430043004300430043004300430043007D
:103B3000430043004300430043004300430043006D
:103B4000430043004300430043004300430043005D
:103B50004300430023006300C410420843082200CE
:103B6000220082084529E22020188351A67A289352
:103B70006A9B0DA4CA6A6952E3206118886A0A7BAD
:103B80006639000042080100430064082200C510A5
:103B900042002200220022002200220022002200F5
:103BA0002200220022002200220022002200220005
:103BB00022002200220022002200220022002200F5
:103BC00022006300630063006300630883088308C6
:103BD00083088308430043002300230023002300BD
:103BE000230043004300430043002300230023003D
:103BF000230023002300230023004300430043004D
:103C0000230023002300230023002300430064003B
:103C1000640043004300430043004300630064002A
:103C2000630043004300430043004300430043005C
:103C3000430043002300430043004300430043008C
:103C4000430043004300430043004300430043005C
:103C50004300430023008408C410220022082200ED
:103C60002200C410E739A118A028C459457248930E
:103C7000ABA30DACC9720329E320E6412339EB72F3
:103C80004531010022080100430064082200E510CC
:103C900083080100220022002200220022002200CC
:103CA0002200220022002200220022002200220004
:103CB00022002200220022002200220022002200F4
:103CC00022006300630863006300630883088308BD
:103CD00083088308430043002300230023002300BC
:103CE00043004300430043004300230023004300FC
:103CF000430043002300230023004300430043000C
:103D000043004300230023002300230043006400FA
:103D10006408640043004300430043006300630001
:103D200063006300430043004300630063004300FB
:103D3000430043004300430043004300430043006B
:103D4000430043004300430043004300430043005B
:103D50004300430023006408A410220863084200C3
:103D600063088729E739A1186241045A867A699B5A
:103D7000ABA3CCA3A872E6494431C2202331C74982
:103D80002521220022000200430863082200E510DA
:103D90000519010022002200220022002200220038
:103DA0002200220022002200220022002200220003
:103DB00022002200220022002200220022002200F3
:103DC000220063008308630863086308830883088C
:103DD00083086208430043002300230023002300DC
:103DE00043004300430043002300230043004300FB
:103DF00043004300230023004300430043004300EB
:103E0000430043002300230023002300430043001A
:103E10006400430043004300430043006300630029
:103E200063006300430043004300630063004300FA
:103E3000430063004300430043004300430043004A
:103E4000430043004300430043004300430043005A
:103E50004300430022006308A4102200420821000E
:103E60008308A7318631C1206241C359E882499B4A
:103E70006A9BECAB0DA4475A074A24294431AA5A3D
:103E80004629020022080200430843084300C410E8
:103E900067292200020022002200220022002200C4
:103EA0002200220022002200220022002200220002
:103EB00022002200220022002200220022002200F2
:103EC00022006300830863086308630863088308AB
:103ED0006208620023002300230023002300430024
:103EE00043004300430043002300230043004300FA
:103EF000430023002300230043004300430043000A
:103F00004300430023002300230023004300430019
:103F10004300430043004300430043004300430089
:103F200063006400630043004300630063004300D8
:103F30004300430043004300430043004300430069
:103F40004300430043004300430043004300430059
:103F50004300430022004308A41002002100210076
:103F6000630846296529811882410462867A29936B
:103F7000CBABCBA3ECA3266224314531A639294A29
:103F8000462102002208020822086308630062003A
:103F9000E8318308020022002200220022002200D1
:103FA0002200220022002200220022002200220001
:103FB00022002200220022002200220022002200F1
:103FC00022006300630863086300630863088308D2
:103FD000620862082300230023002300230043001B
:103FE00043004300430043004300230043004300D9
:103FF0002300230023002300430043004300430029
:1040000043004300430023002300230043004300F8
:104010004300430043004300430043004300430088
:1040200063006400630043004300630063004300D7
:104030004300430043004300430043004300430068
:104040004300430043004300430043004300430058
:104050004300430022006308A4102200210042080C
:1040600083082621E420233183492462A782499BC7
:104070008AA38A9BCB9B055A0331C3206110C418C5
:10408000C510230023080208220064086308010009
:10409000093AC4100200020022002200220022007D
:1040A0002200220022002200220022002200220000
:1040B00022002200220022002200220022002200F0
:1040C00022006300630863006300630863088308D9
:1040D0008308620823002300230023002300230019
:1040E00043006300430043002300430043004300B8
:1040F00043004300430043004300230023004300E8
:1041000043004300430023002300430043002300F7
:104110004300430043004300430064006400640024
:104120004300430043004300430043004300430077
:104130004300430063006300430043004300430027
:10414000430043004300430023004300430843006F
:104150002300420042002100E520010001008310FD
:10416000C8394629C220A4494149036AC682289316
:104170008A9B8A9BECA3E97A065265398210252135
:10418000E5180200220802002300640843004200F0
:104190002519C41001002200220022002200220062
:1041A000220002002200220022002200220022001F
:1041B00022002200220023002200220022002200EE
:1041C0002200630863006300630063006300630808
:1041D0006308630823002300230023002300230037
:1041E00043004300430043004300430043004300B7
:1041F00043004300430043004300430043004300A7
:104200004300430043002300230043002300230016
:104210004300430043004300430043004300430086
:104220004300430043004300430043004300430076
:104230004300430043006300630043004300430026
:104240004300430043004300230043004308430866
:104250004300220001008308C41801000100E5208A
:10426000AB5200002010223961492472C68A289B73
:10427000ABA3CCA38A9B8B938449A2182529E93947
:10428000C4184308220802002300640863002200C7
:104290000519C410010002002200220022002200A1
:1042A00022002200220022002200220022002200FE
:1042B00022002200220023002200220022002200ED
:1042C000220063086300630063006300630063000F
:1042D0006308630823002300230023002300230036
:1042E00023004300430023004300430043004300F6
:1042F00043004300230043004300430043004300C6
:104300004300230043002300230043002300230035
:104310004300430043004300430043004300430085
:104320004300430064004300430043004300430054
:104330004300430043006300630043002300230065
:104340004300430043004300430043004308430845
:104350004300220001000519420801000100420843
:104360008731A2180231634182512472C682499B6F
:104370008BA38B9B6A9B6A93023941186210830856
:1043800042080100220022000200440864082200C2
:10439000C41005192200020022002200220022007F
:1043A00022002200220022002200220022002200FD
:1043B00022002200220023002200220022002200EC
:1043C00022006308630863086300630063006300FE
:1043D0006300630023002300230043002300230025
:1043E00023004300430023004300430043004300F5
:1043F00023004300430043004300430043004300C5
:104400004300430043002300230043002300230014
:104410004300430043004300430043004300430084
:104420004300430043004300430043004300430074
:1044300043004300430043004300430023002300A4
:1044400043004300230023002300430043004300B4
:10445000220002002200052122002200E518662920
:1044600082108539844163498251246AA6828AA3D5
:10447000ABA38A9B499B298B2762A6416208220035
:1044800043082200020022000200430084082200A8
:1044900083082519220022000200220022002200A7
:1044A00022002200220022002200220022002200FC
:1044B00022002200220023002200220022002200EB
:1044C00022006308630863086308630063006300F5
:1044D00063006300230023004300430043004300C4
:1044E0004300230023002300430043004300430014
:1044F00023004300430044004300430043004300C3
:1045000043004300430023004300430023002300F3
:1045100043002300430043004300430043004300A3
:104520004300430043004300430043004300430073
:104530004300430063004300430043004300430043
:1045400043004300230023002300430043002300D3
:1045500022000200E51863082200220005198731B5
:104560000008C12863414249C3596572C78A8BA3B9
:104570008AA36A9B499B088347624439A31846294A
:104580008308220002002200020043008408430046
:1045900063002519420022000200220022002200AE
:1045A000020022002200220022002200220022001B
:1045B00022002200220023002200220022002200EA
:1045C00022006308630863086308630063006300F4
:1045D0006300630023002300430023002300430003
:1045E0004300230023002300430043004300430013
:1045F00023004300430044004300430043004300C2
:1046000043004300430023004300430023004300D2
:1046100043002300430043004300430043004300A2
:104620004300430064004300430043004300430051
:104630004300430043004300230043004300430082
:1046400043002300430023004300430043002200B3
:104650002200630826210100020043080521821080
:104660006018023983496251C361A77A0993ABA3E9
:104670006AA3089B0893E8828449C22041088310FA
:10468000420001000200430002004400840863006D
:10469000420005194200220002002200220002000E
:1046A000020022002200220022002200220022001A
:1046B00022002200220023002200220022002200E9
:1046C00022006308630863086300630063006300FB
:1046D0006300630002002300230023002300230063
:1046E0004300230023002300430043004300430012
:1046F00043004300430044004300430043004300A1
:1047000043004300230023004300430023004300F1
:104710004300430043004300430043004300430081
:104720004300430043004300430043004300640050
:104730004300430043004300230043004300430081
:1047400043004300430043004300430822000200AB
:104750004200C510630843000200C510A831E320E1
:10476000A549A45182518259C361877A2993ABAB81
:104770006AA3E89AA6824A93886AC6496210010031
:1047800042006308220043082300440084086408B0
:104790004200E51042002200020022002200020036
:1047A0000200220022002200220022002200220019
:1047B00022002200220023002200220022002200E8
:1047C000220063086300630063006300630063000A
:1047D0006308630802002300230022002300230053
:1047E0002300230023002300430043004300430031
:1047F00043004300430044004300430043004300A0
:1048000043004300230023004300430023004300F0
:104810004300430043004300430043004300430080
:104820004300430043004300430043006400640826
:10483000640043002300230043004300430043007F
:1048400043004300430022002300430022000100F4
:10485000630806212200630802004721E4202008A3
:104860006341A3516151C361046AC88229934A9B81
:10487000089BA792C792C882A8720331821046296A
:10488000010063082200430002004300640064004A
:104890002200A41042002200020022002200220076
:1048A00022002200220022002200220022002200F8
:1048B00022002200220023002200220022002200E7
:1048C0002200630863006300630063006300630801
:1048D00063086308220023002300430043002300F1
:1048E00023002300230043006300630043004300D0
:1048F00043006400430044006400640064006300FB
:1049000043004300230023004300230043004300EF
:10491000430043004300430043004300430043007F
:10492000430043002300430043004300430043008F
:10493000430043002300430043004300230043009F
:10494000840822004300430043004300010042006A
:10495000E518630823000200C510462941106018BD
:10496000A4518251825982594672098B0993099345
:10497000E89AA792A78AA78264493094E841A310D5
:1049800042002200020023000200230064004300D2
:104990004200A41022002200020022002200220075
:1049A00022002200220022002200220022002200F7
:1049B00022002200220023002200220042002200C6
:1049C0002200630863086300620062006200620004
:1049D0006300630822002300230023004300230018
:1049E000230023002300430043004300430043000F
:1049F00043006400640064006400640064006300B9
:104A000043004300230023004300230043004300EE
:104A1000430043004300430043004300430043007E
:104A2000430043004300430043004300430043006E
:104A30004300230023002300430043006408430095
:104A400022002200430043000100220043008408AA
:104A5000A4104300220002000942E839074AC54970
:104A6000A351A359815982614572E98AE98AE89282
:104A7000C792868A8682A78226620B73C739010095
:104A800001004200020023000200230064004300F2
:104A90002200A4082200220002002200220022009C
:104AA00022002200220022002200220022002200F6
:104AB00022002200220023002200220042002200C5
:104AC000220063086300630062006200620063000A
:104AD0006308830822002200230023002300230010
:104AE000230023002300430043004300430043000E
:104AF000430064008408640064006400640064008F
:104B0000630043002300430043004300430043008D
:104B1000430043004300430043004300430043007D
:104B2000430043004300430043004300430043006D
:104B300043002300430023006408230002004300D5
:104B4000220063082200630842004308841084089E
:104B5000630842000200E518294A00008120C5517F
:104B6000E461A2618261A261467AC88AE88AC88A41
:104B7000A78A668266824672065A443982102621C6
:104B800001004200020022002300230064004300D1
:104B900022006308220022002200220022002200BC
:104BA00022002200220022002200220022002200F5
:104BB00022002200220023002200220042002200C4
:104BC0002200630863006300620062006300630800
:104BD00083088308230023002300230023002300ED
:104BE000230023002300430043004300430043000D
:104BF000430064008408640064006400640064008E
:104C0000630043004300430043004300430043006C
:104C1000430043004300430043004300430043007C
:104C2000430043004300430064006400430043002A
:104C3000430023004300230043002300630063007C
:104C4000020043008308A4088408830883084308FB
:104C5000220043000200E518C3202010E130056265
:104C6000C46162598261C369467AC88AC88AA78AC0
:104C7000868A6682257A6672A55128528210831030
:104C800022002200020022002300430063002300D0
:104C900022004200220022002200220022002200E4
:104CA00022002200220022002200220022002200F4
:104CB00022002200220023002200220042002200C3
:104CC00022006308630063006300630063006308FD
:104CD00083088308230023002300230023002300EC
:104CE000230023002300430043004300430043000C
:104CF0006300640084086400640064006408640065
:104D0000430043004300430043004300630043006B
:104D1000430043004300430043004300430043007B
:104D20004300430043004300640864004300230041
:104D3000430043002300640822004300630822006C
:104D400063002619061984084300430043086308DA
:104D5000430022006308E418E320E651E559A35913
:104D60008259E469A361C469467A8782A78AA782C7
:104D70008682457A04724672E5510852C3180100D2
:104D800042000200020022002300430043002200F0
:104D90002100220022002200220022002200220004
:104DA00022002200220022002200220022002200F3
:104DB00022002200220023002200220042002200C2
:104DC00022006308630863086308630863086308D4
:104DD000630863082300230023002300230023002B
:104DE00023002300430043004300430043004300EB
:104DF00043006400640064006400640064086400AC
:104E0000430023004300430043006300630043006A
:104E1000430043004300430043004300430043007A
:104E200043004300230043006400430023002300A9
:104E30004300430043006300630043000100840813
:104E4000C931A831C41042004200630863086308F6
:104E5000230022008829C41860106441C459E46109
:104E6000C361A361A361E471467A66828682868209
:104E7000457A2572046A056AA5490431A318C4104D
:104E800022002200220002002300430043002200EF
:104E90002200220022002200220022002200220002
:104EA00022002200220022002200220022002200F2
:104EB00022002200220023002200220042002200C1
:104EC00022006308630863086308630863006300E3
:104ED000630063002300230023002300230023003A
:104EE00023002300430043004300430043004300EA
:104EF00043004300640064006400640063004300F6
:104F00004300430043004300430063006300630029
:104F10004300430064004300430043004300430058
:104F200043004300430043004300430023002300A9
:104F30004300430043000200430043006308872905
:104F4000E931A40842004200830884086308230072
:104F50000200A4100519A3108118C4510462C36192
:104F6000C361C361A4610572467A46826682668225
:104F70004572056AE46946724341695A452942000F
:104F8000220022002200020023002300230022002E
:104F90002100210022002200220022002200220003
:104FA00022002200220022002200220022002200F1
:104FB00022002200220023002200220042002200C0
:104FC0002200630863006300630063006300630002
:104FD000630063002200230023002300230023003A
:104FE00023002300430043004300430043004300E9
:104FF00043004300640064006400630063004300F6
:105000004300430063004300430063006400630007
:105010004300640064004300430043004300430036
:1050200043004300640043002300230023004300A7
:105030004300430022006308430022000619E518DC
:1050400022006308630084088408430043000200D0
:10505000220047292521C73943392662E461C3610B
:10506000E469A361C469257A4682468266826682C3
:105070002572046AE469E5618449AA62E4180100C2
:10508000420022002200020023002300220022000E
:105090002200010022002200220022002200220021
:1050A00022002200220022002200220022002200F0
:1050B00022002200220023002200220042002200BF
:1050C0002200630862006200630063006300630003
:1050D000630063002200220022002200230023003C
:1050E00023002300430044004400430043004300E6
:1050F00043004300430043006408630822000100AA
:1051000022002200220042004200630063004300AC
:10511000430043006400640844002300230043006C
:105120006400430063004300230023002300430086
:1051300043004300420042000100C510A41064086F
:1051400043006408640884086300430022004300AD
:105150006300E83961084010275A0662C459C461E7
:105160008259C361E4692572467A6682467A45723D
:10517000256A046AE469256A8449E328A310420089
:1051800043000200010043002200220043002200ED
:105190000100220022002200220022002200220020
:1051A00022002200220022002200220022002200EF
:1051B00022002200220022002200220022002200DF
:1051C0002200630863006300620062006300630002
:1051D000620062002200220022002200230023003D
:1051E00023002300430043004400430043004300E6
:1051F0004300430043004300220022004200C41049
:10520000462146210519C4108308420002002200ED
:10521000430064084300430043004300430064002C
:1052200043002300430043002300230043004300C6
:1052300043004300220022006308C51063084300B6
:1052400043006408840864004300430022002200F5
:1052500067290519400840102339A551C561A35994
:10526000C361C361046A2572457A4682467A257213
:10527000056AE461046AE4614441C749C418420014
:10528000010022002200220022002200220022002F
:105290002200010022002200010002002200020080
:1052A00022004300220022002200220022002200CD
:1052B00022002200220022002200220022002200DE
:1052C0002200630863006300620062006300630001
:1052D000620062002200220022002200230023003C
:1052E0002300230023004300430043004300430006
:1052F000430043006408430043004300A408051929
:1053000067296729672167296729472106198408C2
:105310002300020043004300430023002200230037
:1053200043006408230023002300230043004300BC
:105330004300230022000100E518A41023004300CD
:1053400064084300430043000200220022004200A0
:105350008729873165318541275A64496351E46162
:10536000A361E4692472257A457A257A257A057243
:10537000056AE469046AC4616441C741831022007C
:10538000020022002200020022002200020022006D
:1053900063082200220043000200020042000200D3
:1053A00022004300220022002200220022002200CC
:1053B00022002200220022002200220022002200DD
:1053C0002200630863006300620062006300630000
:1053D000620062002200220022002200230023003B
:1053E0002300230023004300430043004300430005
:1053F000430043006400020002008408A4088308FC
:10540000630863086308A410E518261947212721BB
:105410000619061943002200010022004300430040
:105420004300220023002300230023004300430005
:1054300043002300220001000619430843006408CA
:105440006408230023004300840802000100872928
:10545000A310210003218541065A23418351056A87
:105460008359E46904722572257A057AE571E4713D
:10547000E569056AE469C461A5514531A3100100DD
:105480004308020022000200220043002200230001
:105490008310A41001002200430022000200220019
:1054A000220002002200220022002200220022000C
:1054B00022002200220022002200220022002200DC
:1054C00022006308630063006200620063006300FF
:1054D000620062002200220022002200230023003A
:1054E0002300230023004300430023004300430024
:1054F00043004300430002000200640864084300C4
:105500004300430084088408630864088408A510E5
:10551000E618261946210519C41063082200020066
:105520002200430022002300230023004300230025
:1055300023002300020063080619020043086408E0
:105540004300230043004300020001006A4A4E6BFF
:10555000000062084429A54102394349C461A3619E
:10556000C361E469046A0572057AE471C471C469AF
:10557000E469056AE469C461A551663946292200D7
:10558000220022002200220022002200230002002A
:105590006308262183080100220022000200430044
:1055A000220002002200220022002200220022000B
:1055B00022002200220022002200220022002200DB
:1055C00022006308630063006200620063006300FE
:1055D000620062002200220022002200220023003A
:1055E0002300230023004300430043004300430003
:1055F000430043002200220043006408640884083A
:10560000840864086408640864086408640864081A
:105610008408A408C4102519672167210519830887
:105620002200010022002200220023002300230088
:10563000230002000100C510C5180200430043000A
:10564000230063000200220042000100EC5AEC62D9
:1056500066294429C541064A64498451C461A3614D
:10566000A361E469046A04720572E571C471C471CE
:10567000E569056AC469C5616549A64146292200F4
:10568000010022000200420022002200230002004A
:1056900022000519672922000200020002004300CF
:1056A0000200230022002200220022002200220009
:1056B00022002200220022002200220022002200DA
:1056C00022006308630063006200620063006300FD
:1056D0006200620022002200220022002200230039
:1056E0002300230023004300430043004300430002
:1056F00043004300220022004300630043004400B3
:1057000064002300640864086408640843004300DC
:1057100043004300430042004300A4080519261932
:10572000C5104300220022000200020022002200D5
:10573000020002000100062163082200430043002A
:1057400043004300220063080100C41808424108D6
:1057500061106531E22043398449A459A459E469B0
:10576000A361E46904720472E471E571E579057A74
:1057700005720572C469E56965498639841023009C
:105780000200220002002200220022002200020069
:10579000220063088729A4100200020042002200B0
:1057A0000200220022002200220022002200220009
:1057B00022002200220022002200220022002200D9
:1057C00022006308630063006200620063006300FC
:1057D0006200620022002200220022002200220039
:1057E0002300230023004300430043004300430001
:1057F00043004300430022002300640843004300A9
:1058000044004400240044006408840884086408B8
:105810006308630863006308630043006308C410FF
:10582000E518E51822002200020002000200020032
:105830000200020022000621020023004300430070
:10584000630822002200420000008A5266310000F4
:10585000A2182329A441A4492241C459A361625931
:10586000E469E4690472E471C471E571067A468200
:10587000467A25720572E6698549A74163100200E0
:105880002300220002000200220043000200220046
:1058900022000100A41005192200020042000100AC
:1058A00022002200220022002200220022002200E8
:1058B00022002200220022002200220022002200D8
:1058C00022006308630063006200620063006300FB
:1058D0006200620022002200220022002200220038
:1058E0004300430023004300430023002300430000
:1058F00043004300220022004300430043004300D2
:10590000440044004400440044004300430043007A
:1059100063006408630064004300430043006308BD
:105920008408A410E5188308220001002200220048
:1059300021000100E5184308230023002300430051
:105940002200430022000100C4182D63A6396539E6
:105950006431E6498441223963498359A361E4698A
:10596000046A25722572257A057A2682678A878AD3
:10597000467A26722672E66103394631A41802007F
:105980002200020022002200220022002200220027
:10599000220022004200E518A4102200010022008B
:1059A00022002200220042002200010021002200E9
:1059B00022004200220022002200220022002200B7
:1059C00022006308630863006300630063006200F1
:1059D0006200620022002200220022002200220037
:1059E00043004300230043004300430043004300BF
:1059F00043004300220023004300430043004300D0
:105A0000440044002400440043004300430043009A
:105A1000430043004300440044006400640063000A
:105A200063086308C510C410831042080100010018
:105A300021008310A41043082200230043006408BF
:105A40002300220042000000E8416952284AE6494A
:105A50008541844143392241A459E5690572257A7B
:105A6000257A667A667A8782A88AC892C892888AD6
:105A70006782677A26726451A2288318420823003D
:105A800043002200220022002200220022002200E5
:105A9000220022000100A310A410420022004200B4
:105AA00021000100010001002100420063084200C2
:105AB00001002200220022002200220022002200F7
:105AC0002200630883088308830863086308630867
:105AD0006208620822002200220022002200220026
